:100000000C9434000C94AA000C9451000C945100F0
:100010000C9451000C9451000C9451000C9451001C
:100020000C9451000C9451000C9451000C9451000C
:100030000C9451000C9451000C9451000C945100FC
:100040000C9451000C9451000C9451000C945100EC
:100050000C9451000C9451000C9451000C945100DC
:100060000C9451000C94510011241FBECFEFD8E026
:10007000DEBFCDBF11E0A6E0B1E001C01D92AE3100
:10008000B107E1F711E0A0E0B1E0E8E1F4E002C07F
:1000900005900D92A630B107D9F70E94DA000C94B2
:1000A0000A020C9400000C94DD000C947201FC0117
:1000B00081E090E02081222311F080E090E008951B
:1000C00021E0FC012083089508950895089580910A
:1000D000120181110BC081E090E00E94DD0090933D
:1000E00009018093080181E0809312018091080149
:1000F000909109010895559A569A219A08959BB1B5
:1001000080E289278BB99BB180E489278BB995B1AF
:1001100082E0892785B90895089580910A018111A7
:100120000BC081E090E00E94DD0090930701809376
:10013000060181E080930A018091060190910701F8
:10014000089552985A9AE9E6F0E0808182608083AF
:10015000E89A08951F920F920FB60F9211242F93D1
:100160003F934F935F936F937F938F939F93AF933F
:10017000BF93EF93FF930E9467000E947F00FF915F
:10018000EF91BF91AF919F918F917F916F915F910F
:100190004F913F912F910F900FBE0F901F90189588
:1001A0000E9467000E947B000E948D000E94A100B7
:1001B000789408950E94D000FFCFCF93DF938230D0
:1001C000910510F482E090E0E0911C01F0911D0196
:1001D00020E030E0C0E0D0E0309711F14081518163
:1001E00048175907C0F04817590761F48281938175
:1001F000209719F09B838A832BC090931D018093D5
:100200001C0126C02115310519F04217530718F4B7
:100210009A01BE01DF01EF010280F381E02DDCCF06
:100220002115310509F1281B390B2430310590F4D3
:1002300012968D919C9113976115710521F0FB0128
:100240009383828304C090931D0180931C01FD0160
:10025000329644C0FD01E20FF31F81939193225027
:1002600031092D933C933AC020911A0130911B0122
:10027000232B41F4209102013091030130931B01A3
:1002800020931A01209100013091010121153105BF
:1002900041F42DB73EB74091040150910501241B54
:1002A000350BE0911A01F0911B01E217F307A0F45E
:1002B0002E1B3F0B2817390778F0AC014E5F5F4FBC
:1002C0002417350748F04E0F5F1F50931B014093D2
:1002D0001A018193919302C0E0E0F0E0CF01DF9139
:1002E000CF9108950F931F93CF93DF93009709F455
:1002F0008CC0FC0132971382128200911C01109174
:100300001D010115110581F420813181820F931F98
:1003100020911A0130911B012817390779F5F093C4
:100320001B01E0931A0171C0D80140E050E0AE1704
:10033000BF0750F412962D913C911397AD012115F2
:10034000310509F1D901F3CF9D01DA01338322830D
:1003500060817181860F971F8217930769F4EC0102
:1003600028813981260F371F2E5F3F4F318320832D
:100370008A819B8193838283452B29F4F0931D010D
:10038000E0931C0142C01396FC93EE931297ED018B
:10039000499159919E01240F351FE217F30771F41B
:1003A00080819181840F951F029611969C938E9364
:1003B0008281938113969C938E931297E0E0F0E0F4
:1003C000D80112968D919C911397009719F0F8011E
:1003D0008C01F6CF8D919C9198012E5F3F4F820F3B
:1003E000931F20911A0130911B012817390769F4D6
:1003F000309729F410921D0110921C0102C0138243
:10040000128210931B0100931A01DF91CF911F916B
:080410000F910895F894FFCF4D
:0604180000001E0120009F
:00000001FF
