:100000000C9434000C94F1000C9451000C945100A9
:100010000C9451000C9451000C9451000C9451001C
:100020000C9451000C9451000C9451000C9451000C
:100030000C9451000C9451000C9451000C945100FC
:100040000C9451000C9451000C9451000C945100EC
:100050000C9451000C9451000C9451000C945100DC
:100060000C9451000C94510011241FBECFEFD8E026
:10007000DEBFCDBF11E0A6E0B1E001C01D92AE3100
:10008000B107E1F711E0A0E0B1E0E6EAF4E002C078
:1000900005900D92A630B107D9F70E9421010C946A
:1000A00051020C9400000C9424010C94B901FC0141
:1000B00081E090E02081222311F080E090E008951B
:1000C00021E0FC012083089508950895FC01118228
:1000D000108213821282158214820895DC01FB01C2
:1000E0006F3F710519F014F0EFEFF0E0F7FF02C079
:1000F000E0E0F0E01196FC93EE93BA014F3F51051A
:1001000019F014F06FEF70E077FF02C060E070E06C
:1001100013967C936E931297A9012F3F310519F026
:1001200014F04FEF50E057FF02C040E050E015964A
:100130005C934E9314970895FC01118210821382F0
:100140001282158214820C946E000895809112011F
:1001500081110BC081E090E00E942401909309017D
:100160008093080181E080931201809108019091B1
:1001700009010895559A569A219A08955D9A5E9AB2
:10018000299A08955D985E98299808959BB180E218
:1001900089278BB99BB180E489278BB995B182E01F
:1001A000892785B90895089580910A0181110BC0AE
:1001B00081E090E00E942401909307018093060162
:1001C00081E080930A0180910601909107010895D2
:1001D00052985A9AE9E6F0E0808182608083E89A3A
:1001E00008951F920F920FB60F9211242F933F93F1
:1001F0004F935F936F937F938F939F93AF93BF932F
:10020000EF93FF930E94A6000E94C600FF91EF911A
:10021000BF91AF919F918F917F916F915F914F911E
:100220003F912F910F900FBE0F901F9018950E9435
:10023000A6000E94BA000E94D4000E94E8007894B0
:1002400008950E941701FFCFCF93DF93823091056D
:1002500010F482E090E0E0911C01F0911D0120E09B
:1002600030E0C0E0D0E0309711F140815181481773
:100270005907C0F04817590761F48281938120978C
:1002800019F09B838A832BC090931D0180931C01DE
:1002900026C02115310519F04217530718F49A01A9
:1002A000BE01DF01EF010280F381E02DDCCF2115DB
:1002B000310509F1281B390B2430310590F41296D1
:1002C0008D919C9113976115710521F0FB0193832A
:1002D000828304C090931D0180931C01FD0132961E
:1002E00044C0FD01E20FF31F819391932250310925
:1002F0002D933C933AC020911A0130911B01232B7E
:1003000041F4209102013091030130931B012093AD
:100310001A0120910001309101012115310541F4AC
:100320002DB73EB74091040150910501241B350BB8
:10033000E0911A01F0911B01E217F307A0F42E1BC4
:100340003F0B2817390778F0AC014E5F5F4F241739
:10035000350748F04E0F5F1F50931B0140931A0161
:100360008193919302C0E0E0F0E0CF01DF91CF9163
:1003700008950F931F93CF93DF93009709F48CC0D8
:10038000FC0132971382128200911C0110911D0111
:100390000115110581F420813181820F931F209175
:1003A0001A0130911B012817390779F5F0931B01C9
:1003B000E0931A0171C0D80140E050E0AE17BF07CA
:1003C00050F412962D913C911397AD0121153105F2
:1003D00009F1D901F3CF9D01DA01338322836081D2
:1003E0007181860F971F8217930769F4EC012881AA
:1003F0003981260F371F2E5F3F4F318320838A813B
:100400009B8193838283452B29F4F0931D01E09314
:100410001C0142C01396FC93EE931297ED01499193
:1004200059919E01240F351FE217F30771F4808163
:100430009181840F951F029611969C938E938281D1
:10044000938113969C938E931297E0E0F0E0D8018D
:1004500012968D919C911397009719F0F8018C01D9
:10046000F6CF8D919C9198012E5F3F4F820F931F85
:1004700020911A0130911B012817390769F4309730
:1004800029F410921D0110921C0102C013821282E5
:1004900010931B0100931A01DF91CF911F910F91CF
:0604A0000895F894FFCF5F
:0604A60000001E01200011
:00000001FF
