:100000000C9434000C9440000C943E000C943E0080
:100010000C943E000C943E000C943E000C943E0068
:100020000C943E000C943E000C943E000C943E0058
:100030000C943E000C943E000C943E000C943E0048
:100040000C943E000C943E000C943E000C943E0038
:100050000C943E000C943E000C943E000C943E0028
:100060000C943E000C943E0011241FBECFEFD8E04C
:10007000DEBFCDBF0E945A000C9467000C940000B4
:100080001F920F920FB60F9211248F939F939BB1E3
:1000900080E289278BB99BB180E489278BB995B120
:1000A00082E0892785B99F918F910F900FBE0F90A5
:1000B0001F901895559A569A219A52985A9A80915B
:1000C0006900826080936900E89A7894FFCFF89481
:0200D000FFCF60
:00000001FF
