:100000000C9434000C944D000C943E000C943E0073
:100010000C943E000C943E000C943E000C943E0068
:100020000C943E000C943E000C943E000C943E0058
:100030000C943E000C943E000C943E000C943E0048
:100040000C943E000C943E000C943E000C943E0038
:100050000C943E000C943E000C943E000C943E0028
:100060000C943E000C943E0011241FBECFEFD8E04C
:10007000DEBFCDBF0E9467000C9469000C940000A5
:1000800052985A9AE9E6F0E0808182608083E89A8B
:100090000895559A569A219A08951F920F920FB675
:1000A0000F9211248F939F939BB180E289278BB984
:1000B0009BB180E489278BB995B182E0892785B906
:1000C0009F918F910F900FBE0F901F90189578946D
:0600D000FFCFF894FFCF02
:00000001FF
