:100000000C9434000C9449000C9449000C94490061
:100010000C9449000C9449000C9449000C9449003C
:100020000C9449000C9449000C9449000C9449002C
:100030000C9449000C9449000C9449000C9449001C
:100040000C944B000C9449000C9449000C9449000A
:100050000C9449000C9449000C9449000C944900FC
:100060000C9449000C94490011241FBECFEFD8E036
:10007000DEBFCDBF11E0A0E0B1E0ECE6F1E002C0F0
:1000800005900D92A230B107D9F70E945E000C9442
:10009000B4000C9400001F920F920FB60F9211241F
:1000A0008F939F93809100019091010187BD9F9153
:1000B0008F910F900FBE0F901F901895569A84B590
:1000C000806884BD84B5836084BD80916E0081604A
:1000D00080936E00809100019091010187BD85B5EC
:1000E000816085BD78942FEF30E080910001909180
:1000F000010101969093010180930001B9010E94D2
:100100008C0090930101809300018FE19EE40197A0
:10011000F1F700C00000E9CF97FB072E16F400941A
:1001200007D077FD09D00E94A00007FC05D03EF45F
:10013000909581959F4F0895709561957F4F089593
:10014000AA1BBB1B51E107C0AA1FBB1FA617B707FD
:1001500010F0A61BB70B881F991F5A95A9F7809519
:0C0160009095BC01CD010895F894FFCFEC
:02016C00400051
:00000001FF
