:100000000C9434000C9449000C9449000C94490061
:100010000C9449000C9449000C9449000C9449003C
:100020000C9449000C9449000C9449000C9449002C
:100030000C9449000C9463000C9449000C94490002
:100040000C944B000C9449000C9449000C9449000A
:100050000C9449000C9449000C9449000C944900FC
:100060000C9449000C94490011241FBECFEFD8E036
:10007000DEBFCDBF11E0A0E0B1E0E0EEF1E002C0F4
:1000800005900D92A230B107D9F70E9479000C9427
:10009000EE000C9400001F920F920FB60F921124E5
:1000A0008F939F93809100019091010187BD809172
:1000B00000019091010188BD9F918F910F900FBE1B
:1000C0000F901F9018951F920F920FB60F92112448
:1000D0008F939F93809100019091010190938900EB
:1000E000809388009F918F910F900FBE0F901F906B
:1000F0001895559A569A219A84B5806284BD84B524
:10010000806884BD8091800080688093800084B581
:10011000836084BD809180008160809380008091A5
:1001200081008860809381008FEF90E0909387003A
:100130008093860080916E00816080936E00809134
:100140006F00816080936F0085B5816085BD80916F
:10015000810081608093810078942FEF30E080915E
:10016000000190910101019690930101809300019B
:10017000B9010E94C60090930101809300018FE0B5
:1001800097E20197F1F700C00000E9CF97FB072E37
:1001900016F4009407D077FD09D00E94DA0007FC1E
:1001A00005D03EF4909581959F4F08957095619587
:1001B0007F4F0895AA1BBB1B51E107C0AA1FBB1F9D
:1001C000A617B70710F0A61BB70B881F991F5A95E3
:1001D000A9F780959095BC01CD010895F894FFCFC3
:0201E00080009D
:00000001FF
