:100000000C9434000C943E000C943E000C943E0082
:100010000C943E000C943E000C943E000C943E0068
:100020000C943E000C943E000C943E000C943E0058
:100030000C943E000C943E000C943E000C943E0048
:100040000C943E000C943E000C943E000C943E0038
:100050000C943E000C943E000C943E000C943E0028
:100060000C943E000C943E0011241FBECFEFD8E04C
:10007000DEBFCDBF0E9440000C9459000C940000DC
:10008000559A569A219A30E220E492E08BB1832768
:100090008BB98BB182278BB985B1892785B94FE39D
:1000A0005DE083E0415050408040E1F700C0000037
:0600B000EDCFF894FFCF34
:00000001FF
