:100000000C9434000C9451000C9451000C94510049
:100010000C9451000C9451000C9451000C9451001C
:100020000C9451000C9451000C9451000C9451000C
:100030000C9451000C9451000C9451000C945100FC
:100040000C9451000C9451000C9451000C945100EC
:100050000C9451000C9451000C9451000C945100DC
:100060000C9451000C94510011241FBECFEFD8E026
:10007000DEBFCDBF11E0A6E0B1E001C01D92A4310A
:10008000B107E1F711E0A0E0B1E0ECEAF3E002C073
:1000900005900D92A630B107D9F70E9493000C94F9
:1000A000D4010C9400000C94A7000C943C01FC01BA
:1000B00081E090E02081222311F080E090E008951B
:1000C00021E0FC0120830895089508950E946D00A9
:1000D0000E94880078940895089580910801811104
:1000E00012C088E091E00E945700892B61F081E006
:1000F00090E00E945300909307018093060188E0EE
:1001000091E00E946000809106019091070108959E
:10011000259A08952D9A08952D98089595B180E215
:10012000892785B908950E9466000E946D000E948B
:100130008A000E946D000E948E002FEF89E698E1F0
:10014000215080409040E1F700C00000F2CFCF93F3
:10015000DF938230910510F482E090E0E09112018B
:10016000F091130120E030E0C0E0D0E0309711F1D1
:100170004081518148175907C0F04817590761F469
:1001800082819381209719F09B838A832BC090935F
:1001900013018093120126C02115310519F0421771
:1001A000530718F49A01BE01DF01EF010280F381C9
:1001B000E02DDCCF2115310509F1281B390B243046
:1001C000310590F412968D919C91139761157105EC
:1001D00021F0FB019383828304C0909313018093E9
:1001E0001201FD01329644C0FD01E20FF31F81931D
:1001F0009193225031092D933C933AC020911001E4
:1002000030911101232B41F420910201309103011F
:1002100030931101209310012091000130910101D0
:100220002115310541F42DB73EB74091040150919D
:100230000501241B350BE0911001F0911101E2172B
:10024000F307A0F42E1B3F0B2817390778F0AC01F9
:100250004E5F5F4F2417350748F04E0F5F1F5093D6
:100260001101409310018193919302C0E0E0F0E00E
:10027000CF01DF91CF9108950F931F93CF93DF9319
:10028000009709F48CC0FC0132971382128200910E
:100290001201109113010115110581F420813181A2
:1002A000820F931F209110013091110128173907F7
:1002B00079F5F0931101E093100171C0D80140E08D
:1002C00050E0AE17BF0750F412962D913C91139752
:1002D000AD012115310509F1D901F3CF9D01DA01F5
:1002E0003383228360817181860F971F8217930762
:1002F00069F4EC0128813981260F371F2E5F3F4FAB
:10030000318320838A819B8193838283452B29F4C7
:10031000F0931301E093120142C01396FC93EE9305
:100320001297ED01499159919E01240F351FE21753
:10033000F30771F480819181840F951F02961196C5
:100340009C938E938281938113969C938E931297A4
:10035000E0E0F0E0D80112968D919C911397009700
:1003600019F0F8018C01F6CF8D919C9198012E5FC8
:100370003F4F820F931F20911001309111012817D8
:10038000390769F4309729F4109213011092120181
:1003900002C0138212821093110100931001DF91A9
:0C03A000CF911F910F910895F894FFCFAA
:0603AC0000001401200016
:00000001FF
