:100000000C9434000C948A000C9451000C94510010
:100010000C9451000C9451000C9451000C9451001C
:100020000C9451000C9451000C9451000C9451000C
:100030000C9451000C9451000C9451000C945100FC
:100040000C9451000C9451000C9451000C945100EC
:100050000C9451000C9451000C9451000C945100DC
:100060000C9451000C94510011241FBECFEFD8E026
:10007000DEBFCDBF11E0A0E0B1E0E6E9FCE202C0E6
:1000800005900D92A032B107D9F715E0A0E2B1E0DA
:1000900001C01D92AB38B107E1F70E94B0000C948B
:1000A00049160C9400000C941C15FC0181E090E0B2
:1000B0002081222311F080E090E0089521E0FC01EE
:1000C0002083089580912201811112C082E291E083
:1000D0000E945500892B61F081E090E00E9453005E
:1000E000909321018093200182E291E00E945E00C2
:1000F000809120019091210108959BB180E2892790
:100100008BB99BB180E489278BB995B182E08927AF
:1001100085B908951F920F920FB60F9211242F9355
:100120003F934F935F936F937F938F939F93AF937F
:10013000BF93EF93FF930E9462000E947D00FF91A6
:10014000EF91BF91AF919F918F917F916F915F914F
:100150004F913F912F910F900FBE0F901F901895C8
:10016000CF93DF93CDB7DEB7C857D1090FB6F89458
:10017000DEBF0FBECDBF80E792E0909387008093F3
:1001800086008091810088608093810080916F005B
:10019000806280936F0080918100846080938100F1
:1001A000789480E00E94D01140E06FE071E084E339
:1001B00091E00E948F0B41E067E071E083E693E0FD
:1001C0000E94D70B892B71F443E653E068E770E097
:1001D000CE0101960E947710892BB1F783E693E058
:1001E0000E945910FFCFFC016381862F90E0A0E0B0
:1001F000B0E0BA2FA92F982F88272281822BBA2FFF
:10020000A92F982F88272181822BBA2FA92F982FC9
:1002100088272081BC01CD01622B08950F931F9385
:10022000FC019A01AB01225031094109510987892A
:10023000908DA18DB28D0297A109B10928173907B8
:100240004A075B0768F4A185B2850E94E01403A504
:1002500014A525A536A5600F711F821F931F03C02B
:1002600060E070E0CB011F910F910895DC014D918A
:100270005C91119741155105F9F0FA01BF01819187
:10028000813218F08A33D1F704C080912A0190E0BE
:100290000895FA0121916E177F0771F480ED820FA6
:1002A000823050F4332727FD3095C901C0974E5F47
:1002B0005F4F4D935C9308958FEF9FEF08950F93D9
:1002C0001F93CF93DF93EC018B01892B31F4F8015D
:1002D0001182108289E090E01AC0E881F98130979C
:1002E000B1F38081882399F3258136818A819B81AE
:1002F0002817390761F781810E949E1280FDE7CFA0
:1003000088819981F8019183808380E090E0DF917A
:10031000CF911F910F910895FB01438D50E0542F11
:100320004427928D492B60E070E0833079F4858911
:1003300090E0982F88272489822BA0E0B0E0DC0190
:1003400099278827482B592B6A2B7B2BCB01BA0185
:1003500008958F929F92AF92BF92CF92DF92EF92C9
:10036000FF920F931F93CF93DF93EC018FA498A874
:10037000A9A8BAA86C0183E3C80ED11C01E010E063
:10038000A5019401B60189810E94F212892B89F599
:100390001B828BA19CA1ADA1BEA1B501A401481BEC
:1003A000590B6A0B7B0B8B8D9C8DAD8DBE8D4817C9
:1003B00059076A077B0718F080E090E01CC0EA80CC
:1003C000F12C82E0E816F104B8F38B8D9C8DAD8D95
:1003D000BE8D880E991EAA1EBB1E01E010E0A5016D
:1003E0009401B60189810E94F21281E0E81AF108B5
:1003F000E8CF81E090E0DF91CF911F910F91FF90C6
:10040000EF90DF90CF90BF90AF909F908F90089526
:10041000FC01238121110C94A90180E090E0089552
:100420008F929F92AF92BF92EF92FF920F931F9382
:10043000CF93DF93EC014A015B018FA598A9A9A98D
:10044000BAA9481759076A077B07F1F0CE010E9445
:1004500008027C01892BD1F401E010E0A501940190
:10046000BE016D5C7F4F89810E94A512892B39F0F6
:10047000EE24E394F12C88248A94982C54018FA6BE
:1004800098AAA9AABAAA02C0E12CF12CC701DF914F
:10049000CF911F910F91FF90EF90BF90AF909F90E1
:1004A0008F900895CF93DF93EC011B828FEF9FEF26
:1004B000DC018FA798ABA9ABBAABCE010E941002AA
:1004C000892B69F5FE01EE5CFD4F808190E0982F4D
:1004D000882731972081822B85359A4A11F58BA97F
:1004E000893E29F08B3E09F58DA98039F1F4CE01C2
:1004F00087599F4F0E94F300DC01CB01BB27863454
:100500009144A445B10579F0CE018B579F4F0E94CD
:10051000F300663471448445934339F404C084E0A5
:1005200005C083E003C080E001C082E0DF91CF918D
:1005300008952F923F924F925F926F927F928F9287
:100540009F92AF92BF92CF92DF92EF92FF920F9362
:100550001F93CF93DF93CDB7DEB76E970FB6F894A6
:10056000DEBF0FBECDBF7B01DB011D921C924E8F03
:100570000E9436016C014E8D97FD63C2FC01EE0FA7
:10058000FF1FE35DFE4F008111810115110509F484
:100590005BC2F701118300834E7FF42ED8018C914A
:1005A000882371F011968C910E949E1280FD08C0E4
:1005B000FF2009F44CC282FF4AC28AE090E052C296
:1005C000F8011082C1828C2D0E94D01180FD42C2A0
:1005D000FF2011F082FDF1CF40E050E0BA01C801E8
:1005E0000E945202823009F043C09E012F5F3F4FAC
:1005F0006901780137E0E31A3EEFF30A480147EC5E
:10060000841A4DEF940A5601F701349780818823AC
:1006100021F0C7010E94F30003C060E070E0CB014D
:10062000D5016D937D938D939D935D01B0E1EB0EAC
:10063000F11CE814F90441F77E01E1E1EE0EF11C32
:10064000D6014D905D906D907D906D0141145104E7
:100650006104710441F0B301A201C8010E94520279
:10066000823010F410C083E0CE14DF0449F7F5C1E6
:10067000412C512C3201843009F4F2C1823018F03F
:100680008DE090E0EFC1F80187AD90E0982F8827CA
:1006900026AD822B8115924099F7F801E65BFF4F5A
:1006A0008080912C982C882431978081882A81140D
:1006B000910419F0A12CB12C07C0C801895A9F4F91
:1006C0000E94F3004B015C01D8015B968D929D92D4
:1006D000AD92BC925E97F801ED5BFF4F4081F8014F
:1006E00042838FEF840F823058F6E05CFF4F208109
:1006F000298B822F90E01A969C938E9319970097DE
:1007000009F4BECF9C012150310982239323892B08
:1007100009F0B6CF3596808190E0982F88273197E1
:1007200020811C01222AF80130862782C1018F70A6
:100730009927892B09F0A4CFE95BFF4F808190E0D6
:10074000982F882731972081822B6C01E12CF12C86
:10075000892B49F4C8018D5A9F4F4E8F0E94F30098
:100760006B017C014E8DF801EE5BFF4FE081F0E004
:10077000FE2FEE27D801AF5BBF4F8C91E82B30974F
:1007800009F47ECFA42FB0E0A50194010E94E014EB
:100790006E8B7F8B888F998F9F0140E050E02A8F6E
:1007A0003B8F4C8F5D8FC101B4E096958795BA95CC
:1007B000E1F7280F391F411D511DDA01C9012E89AA
:1007C0003F89488D598D280F391F4A1F5B1F2A8B7F
:1007D0003B8B4C8B5D8BC216D306E406F50608F402
:1007E0004FCFC701B601621B730B840B950BA98910
:1007F0002A2F30E040E050E00E94EB142115310533
:100800004105510509F43CCF263FBFEF3B074105A9
:10081000510548F4263FEFE03E074105510530F011
:10082000F2E0F98B05C083E0898B02C091E0998BDF
:1008300069017A01A2E0CA0ED11CE11CF11CF80189
:10084000C78AD08EE18EF28E478E50A261A272A22C
:100850008A8D9B8DAC8DBD8D840D951DA61DB71DFC
:1008600083A394A3A5A3B6A34A895B896C897D89D8
:10087000440D551D661D771D43A754A765A776A790
:10088000F989F33021F5F801E25AFF4F808190E0B9
:10089000982F882731972081822B892B09F0F0CE61
:1008A000232809F0EDCEC801815A9F4F0E94F30022
:1008B000D80197966D937D938D939C939A9772E050
:1008C000CC0CDD1CEE1CFF1C7A95D1F72DC0232823
:1008D00009F4D6CE2E893F89488D598D820F931FFA
:1008E000A41FB51FF80187A390A7A1A7B2A7F989F4
:1008F000F23029F4CC0CDD1CEE1CFF1C15C0A3E06B
:10090000B0E0A70196010E94E014DC01CB01B6958E
:10091000A7959795879521E0C222DD24EE24FF2438
:10092000C80ED91EEA1EFB1E3FEFC30E31E0D31ED8
:10093000E11CF11C49E0F694E794D794C7944A95DA
:10094000D1F78C149D04AE04BF0408F499CE8FEF48
:100950009FEFDC01F8018787908BA18BB28B838797
:100960009487A587B68780E88483F989F33009F0F6
:1009700051C0F801EC59FF4F808190E0982F8827F3
:1009800031972081822B019709F044C0B301A20165
:100990004F5F5F4F6F4F7F4FC8010E941002892B3E
:1009A000C9F5D80114961C92F801EE5CFD4F8081C8
:1009B00090E0982F882731972081822B85359A4A9D
:1009C00049F5C801C3960E94F3006235724581461D
:1009D000914401F5C801895E9D4F0E94F300623782
:1009E000724781449146B1F4C801855E9D4F0E94D3
:1009F000F300D8011F966D937D938D939C9352972E
:100A0000C801815E9D4F0E94F300F80163877487DF
:100A100085879687E989D801EC9380912B01909185
:100A20002C01019690932C0180932B0116969C9398
:100A30008E93159753961D921D921D921C92569758
:100A400006C08BE090E00EC08CE090E00BC080E030
:100A500090E008C083E090E005C0843009F010CE3B
:100A600081E090E06E960FB6F894DEBF0FBECDBF6A
:100A7000DF91CF911F910F91FF90EF90DF90CF907A
:100A8000BF90AF909F908F907F906F905F904F90AE
:100A90003F902F900895AF92BF92CF92DF92EF9246
:100AA000FF920F931F93CF93DF938C016A017B0119
:100AB000423051056105710508F4AAC0F801878923
:100AC000908DA18DB28D481759076A077B0708F0F2
:100AD0009FC08081823009F44DC0833009F472C018
:100AE000813009F095C0EA01D695C795C40FD51F8E
:100AF000CE01892F9927869543A154A165A176A19E
:100B0000480F591F611D711DC8010E941002892BD9
:100B100021F06FEF7FEFCB017FC05E01FFEFAF1AD7
:100B2000BF0AD170C00FD11FCBA9C501892F99274A
:100B30008695F80143A154A165A176A1480F591FDC
:100B4000611D711DC8010E941002892B11F7F1E08F
:100B5000BF22F801EA0DFB1D83A96C2F70E0782BF2
:100B6000C0FE06C0E4E076956795EA95E1F727C0F8
:100B70007F7025C077276F2D5E2D4D2DF80183A145
:100B800094A1A5A1B6A1480F591F6A1F7B1FC801D8
:100B90000E941002892B09F0BCCFCC0CDD1CE8941C
:100BA000C0F8F1E0DF22F801EC0DFD1D64A970E052
:100BB000762F6627F801EC0DFD1D83A9682B80E0D8
:100BC00090E02AC0F80183A194A1A5A1B6A127E0D5
:100BD00076956795579547952A95D1F7480F591FF0
:100BE0006A1F7B1FC8010E941002892B09F091CF58
:100BF000CC0CDD1CCC0CDD1CFCEFCF22F1E0DF22A5
:100C0000C601C396800F911F0E94F3009F7004C01D
:100C100061E070E080E090E0DF91CF911F910F9153
:100C2000FF90EF90DF90CF90BF90AF9008954F92DC
:100C30005F926F927F928F929F92AF92BF92CF926C
:100C4000DF92EF92FF920F931F93CF93DF93EC010C
:100C50006A017B01088119814115510580E268070D
:100C6000710518F082E090E0ACC0DB01CA018F7121
:100C70009927AA27BB27892B8A2B8B2B99F74E877D
:100C80005F87688B798B8E809F80A884B98481145C
:100C90009104A104B10451F5F8018081833040F042
:100CA00087A190A5A1A5B2A50097A105B105E1F482
:100CB000F80187819085A0E0B0E0B701A60125E0AA
:100CC00076956795579547952A95D1F7481759070F
:100CD0006A077B0738F687A190A5A1A5B2A58E8BE0
:100CE0009F8BA88FB98F41C04C015D01F8014184F1
:100CF0005284612C712C39E0440C551C661C771C05
:100D00003A95D1F7B501A401C414D504E604F7045B
:100D100018F1888199810E944B05AB01BC014F3FBE
:100D2000FFEF5F076F077F0709F449C042305105A5
:100D30006105710508F496CFF8018789908DA18D22
:100D4000B28D481759076A077B0708F08BCFC41884
:100D5000D508E608F708D8CF4A015B01C8010E9410
:100D60000E016E8B7F8B888F998F8A8A9B8AAC8AC3
:100D7000BD8A8E899F89A88DB98D0097A105B1057F
:100D800009F470CFB701A60129E0769567955795CC
:100D900047952A95D1F7840F951FA61FB71F8E8BF5
:100DA0009F8BA88FB98FF1E0DF2283E3C80ED11C9F
:100DB000C00ED11EDB8ECA8E80E090E002C081E0C2
:100DC00090E0DF91CF911F910F91FF90EF90DF9016
:100DD000CF90BF90AF909F908F907F906F905F90DB
:100DE0004F9008952F923F924F925F926F927F9211
:100DF0008F929F92AF92BF92CF92DF92EF92FF922B
:100E00000F931F93CF93DF9300D000D0CDB7DEB701
:100E10001C016A017B01280139014230510561053D
:100E2000710508F4EEC0FC018789908DA18DB28D0B
:100E3000481759076A077B0708F0E3C080818230B2
:100E400009F475C0833009F499C0813009F0D9C024
:100E50004A0196948794840E951EC401892F992780
:100E6000869543A154A165A176A1480F591F611D24
:100E7000711DC1010E9410025C01892B09F0C4C0E0
:100E800084010F5F1F4FF1E09F22820C931CD7015A
:100E9000C60181709927AA27BB2789839A83AB83D0
:100EA000BC83C0FE0BC0D401D3968C91282F2F7029
:100EB000B0E14B9EC0011124822B01C0842DF401AE
:100EC00083AB81E0D10113968C93139793964D9148
:100ED0005D916D917C919697C801892F9927869590
:100EE000480F591F611D711DC1010E9410025C0154
:100EF000892B09F089C01170F101E00FF11F898180
:100F00009A81AB81BC81892B8A2B8B2B41F054E0D9
:100F100076946794579447945A95D1F706C093A94D
:100F2000907F852D8F70492E482A43AA22C07727AB
:100F30006F2D5E2D4D2DF10183A194A1A5A1B6A128
:100F4000480F591F6A1F7B1FC1010E9410025C01DC
:100F5000892B09F059C0CC0CDD1CE894C0F8F1E0F5
:100F6000DF22F101EC0DFD1D43AAF101EC0DFD1D89
:100F700054AA81E0D10113968C9346C0F10183A15C
:100F800094A1A5A1B6A127E07695679557954795B9
:100F90002A95D1F7480F591F6A1F7B1FC1010E9474
:100FA00010025C01892B81F5CC0CDD1CCC0CDD1C06
:100FB000FCEFCF22F1E0DF2286010D5C1F4F020D16
:100FC000131DC8010E94F300DC01CB01882799277B
:100FD000AA27B07F2FE07222482A592A6A2A7B2A40
:100FE000F101EC0DFD1D43AAD80111965C921197F9
:100FF00012966C92129713967C9281E0F101838392
:1010000003C082E0A82EB12CC5010F900F900F9065
:101010000F90DF91CF911F910F91FF90EF90DF9094
:10102000CF90BF90AF909F908F907F906F905F9088
:101030004F903F902F9008954F925F926F927F92C2
:101040008F929F92AF92BF92CF92DF92EF92FF92D8
:101050000F931F93CF93DF938C014A015B01FC0137
:10106000C081D181411551056105710599F44B8409
:101070005C846D847E84411451046104710461F1C7
:101080008F89988DA98DBA8D481659066A067B06F8
:1010900038F122C0CE010E944B056B017C01623009
:1010A00071058105910508F496C06F3F7F4F8F4F02
:1010B0009F4F29F44FEF3FEF2FEF9FEF95C08F89A0
:1010C000988DA98DBA8DC816D906EA06FB0608F4D4
:1010D00087C02401350104C0412C512C32014394B6
:1010E000730162018FEFC81AD80AE80AF80A8F89DB
:1010F000988DA98DBA8DC816D906EA06FB0668F048
:10110000E2E04E1651046104710410F440E064C042
:1011100082E0C82ED12CE12CF12CB701A601F801F8
:10112000808191810E944B056115710581059105B2
:10113000A9F0613071058105910531F06F3FFFEF36
:101140007F078F079F0721F4462F372F282F4CC08A
:10115000C414D504E604F70429F6D8CF0FEF1FEF27
:101160009801B701A601CE010E94F206009781F511
:1011700081149104A104B104E9F4CB86DC86ED86E8
:10118000FE868F859889A989BA894F89588D698D7E
:101190007A8D425051096109710984179507A60794
:1011A000B70790F40197A109B1098F87988BA98B94
:1011B000BA8B0AC097018601B501A401CE010E9435
:1011C000F2060097D1F204C08C8181608C8308C044
:1011D000019709F46FCF41E030E020E090E004C0D7
:1011E0004C2D3D2D2E2D9F2D642F732F822FDF919F
:1011F000CF911F910F91FF90EF90DF90CF90BF9014
:10120000AF909F908F907F906F905F904F900895D8
:101210004F925F926F927F929F92AF92BF92CF92C6
:10122000DF92EF92FF920F931F93CF93DF93FC0116
:101230005B01C081D181C684D784E088F18846896A
:101240005789608D718D411551056105710509F44E
:10125000F8C080E2C80ED11CE11CF11CC114D104FD
:1012600080E2E806F10408F0ECC08F01D701C60166
:101270009170AA27BB27892B8A2B8B2B09F0CFC013
:101280004F5F5F4F6F4F7F4F468B578B608F718FD4
:101290004289538964897589411551056105710534
:1012A000C9F48F819885A0E0B0E0B701A60135E0D0
:1012B00076956795579547953A95D1F74817590709
:1012C0006A077B0708F4ABC0F801168A178A108EEC
:1012D000118EB7C089859A850197A0E0B0E02601FC
:1012E000370129E076946794579447942A95D1F76B
:1012F00084219521A621B721892B8A2B8B2B09F0DC
:101300008EC0CE010E944B052B013C01623071055D
:101310008105910518F482E090E098C08FEF48169F
:1013200058066806780619F481E090E08FC08F892E
:10133000988DA98DBA8D481659066A067B0608F461
:101340005FC0AB2809F2F801428953896489758925
:10135000C8010E941C082B013C0161157105810523
:10136000910509F471C0613071058105910599F20B
:101370008FEF4816580668067806B1F2CE010E9433
:101380000802892B89F6FE01F396CE018D5C9D4FF4
:101390001192E817F907E1F7B301A201CE010E940B
:1013A0000E016FA778AB89AB9AABA12CB12C992415
:1013B000939489859A85A816B906B0F49B82CE01CC
:1013C0000E94A901892B09F0AFCFEFEFAE1ABE0A38
:1013D0008FA598A9A9A9BAA90196A11DB11D8FA78A
:1013E00098ABA9ABBAABE5CF8FA598A9A9A9BAA923
:1013F0008A199B09A109B1098FA798ABA9ABBAAB10
:10140000F801428A538A648A758AB301A201CE0127
:101410000E940E01F801668B778B808F918FF80107
:10142000C686D786E08AF18AF1E0DF2283E3C80E20
:10143000D11CCC0DDD1DF801D38FC28F80E090E070
:1014400005C084E090E002C087E090E0DF91CF919A
:101450001F910F91FF90EF90DF90CF90BF90AF90D2
:101460009F907F906F905F904F9008952F923F9242
:101470005F927F928F929F92AF92BF92CF92DF92B4
:10148000EF92FF920F931F93CF93DF93EC018B01A9
:10149000C880D980FB0180818F3211F08C3511F426
:1014A00098010AC0F60183899489A589B6898E833B
:1014B0009F83A887B9870DC08901F90180812F5FBB
:1014C0003F4F8F32C9F38C35B9F31E821F821886C5
:1014D0001986F8018081803258F07E01FCE1EF0E20
:1014E000F11C4E0187E2880E911C50E2752E58C007
:1014F00080E88FA340E050E0BA01CE01DF91CF91A8
:101500001F910F91FF90EF90DF90CF90BF90AF9021
:101510009F908F907F905F903F902F900C94170634
:10152000D801F70120E030E02F5F3F4F8D918E32E0
:1015300009F447C08F3209F04AC0020F131F8132ED
:1015400008F44CC080E28FA3A880B98040E050E04E
:10155000BA01CE010E941706009751F44E895F89A7
:10156000688D798DC5010E941002009709F485C02D
:101570002FA1009709F0A6C022FDC0C08C8184FF76
:10158000B2C06E857F8571706D5C7F4F6C0D7D1D67
:10159000F60180810E948C016E837F838887998702
:1015A000F7017192E815F905E1F7F80180818E32B3
:1015B00009F4B6CF80E090E020E030E068E070E031
:1015C0002FC02330310509F455C08193ADCF8C3540
:1015D00009F4B3CF813208F04DC0AFCF84E2B3CF6E
:1015E0005F3229F15C3519F15E3209F47FC086174C
:1015F000970708F03FC057FD3DC0A52EB12CA0E1D4
:10160000B1E04D9141111FC04FE9450F4A3118F427
:1016100040EE542E550ED701A80FB91F5C920196CB
:101620002F5F3F4F5191552E5132D0F614C0F80123
:10163000E20FF31F9F01201B310B41914F32D1F379
:101640004C35C1F308C0242E332427FC30942A14CF
:101650003B04B9F60FC0892B69F08C8D853E11F4DF
:1016600085E08C8F513210F080E001C084E0020FE1
:10167000131F69CF86E090E041C0EA8DFB8D208189
:101680002223E9F023852F732C83238523FD11C0AA
:10169000AF01455F5F4FD70121916D9130E0261B6F
:1016A0003109E417F50719F4232B19F461CF232B23
:1016B00099F360E070E0CE010E9408094DCF84E00C
:1016C00090E056CF84309105C9F4322F347025FF55
:1016D00008C0332309F464CF80E88FA380E090E052
:1016E0000DC031110BC085E090E008C06B30710572
:1016F00009F288E090E06BE070E092CFDF91CF914B
:101700001F910F91FF90EF90DF90CF90BF90AF901F
:101710009F908F907F905F903F902F900895CF93F0
:10172000DF93CDB7DEB727970FB6F894DEBF0FBEB5
:10173000CDBF9C838B837E836D837A836983CE0147
:1017400001964F830E9436014F8197FD22C0880F7A
:10175000991FFC01E35DFE4F0190F081E02D309771
:1017600009F01082EB81FC81309709F01082DC01D6
:10177000A35DBE4FED93FC93EF2B71F0413061F40C
:1017800040E0BE016D5F7F4FCE0105960E94990239
:1017900005C08BE090E002C080E090E027960FB695
:1017A000F894DEBF0FBECDBFDF91CF9108952F9289
:1017B0003F924F925F926F927F928F929F92AF92E1
:1017C000BF92CF92DF92EF92FF920F931F93CF932E
:1017D000DF93CDB7DEB7E3970FB6F894DEBF0FBE49
:1017E000CDBF7CA76BA7009709F4F1C1142F1C0192
:1017F000242F2F732DA7422FBE01675D7F4FCE018F
:101800008B960E949902009709F008C289A59AA5B3
:101810009A8389836BA57CA5CE0101960E94360A26
:10182000009729F428A527FF02C086E090E0212F29
:101830002C7109F404C1009709F451C0843091055A
:1018400009F047C0E980FA8040E050E0BA01CE01DB
:1018500001960E941706009709F0E7C14F89588D3D
:10186000698D7A8DC7010E941002009709F0DDC1D1
:10187000EB8DFC8D8081853E79F44F89588D698D83
:101880007A8DC7010E941002009719F5EB8DFC8D2F
:101890009F01205E3F4F09C0882379F361E070E02B
:1018A000CE0101960E940809D6CF1192E217F307E4
:1018B000E1F7DE015D96EB8DFC8D9F01255F3F4FCB
:1018C0004D914193E217F307D9F721E0D701139621
:1018D0002C93BDA5B860BDA7009739F09FC18D813D
:1018E000817109F096C112FD74C1EDA5E3FFB1C08D
:1018F000EB8DFC8D1686178691EA908B88E4818BA0
:10190000EB8DFC8D168A178A908F818FEB8DFC8D65
:1019100080E28387AB8CBC8C89A49AA4B501D401E6
:101920008C910E948C016B017C01F501128E138E4B
:10193000D4018C91833011F4148A158AEB8DFC8DBF
:10194000148E158E168E178E81E0F4018383C114D8
:10195000D104E104F10409F47CC087A590A9A1A9F0
:10196000B2A988AB99ABAAABBBABE981FA81FFA75F
:10197000EEA7F2E0CF16D104E104F10408F44CC163
:10198000EEA5FFA58789908DA18DB28DC816D906C9
:10199000EA06FB0608F040C146015701B501A40163
:1019A00089819A810E944B052B013C0161157105CB
:1019B0008105910509F410C161307105810591051A
:1019C00009F42AC16F3F7F4F8F4F9F4F09F41BC10E
:1019D00000E010E09801B501A4018EA59FA50E942A
:1019E000F206009709F01AC1EEA5FFA58785908938
:1019F000A189B2894789508D618D728D4A015B0141
:101A0000F2E08F1A9108A108B10888159905AA0576
:101A1000BB0560F40196A11DB11DEEA5FFA587874A
:101A2000908BA18BB28B84818160848353014201AE
:101A3000441655066606770608F4B0CFCDC0009769
:101A400009F0ECC08D8184FDE1C011FF02C080FD72
:101A5000E0C0FDA5F3FF02C0F064FDA7A9A4BAA4ED
:101A6000F50187A590A9A1A9B2A9F101848F958F4D
:101A7000A68FB78FEB8CFC8CF1A2E0A2B701D50149
:101A80008C910E948C012B013C01F10166837783CC
:101A900080879187C7014C960E94F3006B017C01FF
:101AA000D1011A966D937D938D939C931D971196FA
:101AB000BC92AE92F5018581968113969C938E938C
:101AC0001297FDA51E96FC931E971F961C921F97BA
:101AD00058961D921D921D921C925B97F101108ADF
:101AE000118A128A138AFDA5F5FF9CC0C114D10486
:101AF000E104F10409F496C05096CD92DD92ED9286
:101B0000FC925397F50181849284A12CB12C39E089
:101B1000880C991CAA1CBB1C3A95D1F78C149D0407
:101B2000AE04BF0410F5B301A201D1018D919C91C7
:101B30000E944B052B013C01623071058105910526
:101B400040F06F3F7F4F8F4F9F4F31F080E090E02C
:101B500005C082E090E002C081E090E0C818D9089A
:101B6000EA08FB080097D1F202C080E090E0D101C2
:101B700054964D925D926D927C925797009709F022
:101B80004DC0D701C6019170AA27BB27892B8A2B8C
:101B90008B2B09F447C0B301A20189A59AA50E9425
:101BA0000E016115710581059105B1F129E0F694E9
:101BB000E794D794C7942A95D1F7C60ED71EE81E8E
:101BC000F91EF101C08ED18EE28EF38E2BC089E01A
:101BD0002AC088E090E022C048A959A96AA97BA937
:101BE00089A59AA50E941002E9A5FAA521E0C21ACA
:101BF000D108E108F108C386D486E586F686009709
:101C000009F427CF0BC081E090E008C084E090E0A9
:101C100005C087E090E002C082E090E0D1011D9213
:101C20001C920AC080E090E007C08430910509F062
:101C300050CE87E090E04DCEE3960FB6F894DEBF2D
:101C40000FBECDBFDF91CF911F910F91FF90EF900D
:101C5000DF90CF90BF90AF909F908F907F906F90CC
:101C60005F904F903F902F9008952F923F924F9208
:101C70005F926F927F928F929F92AF92BF92CF921C
:101C8000DF92EF92FF920F931F93CF93DF9300D0D9
:101C9000CDB7DEB77C014B015A013901D9011D9244
:101CA0001C92BE016F5F7F4F0E945F01009709F099
:101CB00001C1F701878590E0009709F0FBC0868598
:101CC00080FFF6C082859385A485B58540895189BA
:101CD00062897389841B950BA60BB70BA50160E085
:101CE00070E084179507A607B70708F45C01212C5C
:101CF00032E0332EA114B10409F4D8C0F701808971
:101D00009189A289B389AC01BD01517066277727FB
:101D1000452B462B472B09F081C0E981FA810185CB
:101D2000128501501109AC01BD0129E07695679536
:101D3000579547952A95D1F70423152301151105C9
:101D400081F5892B8A2B8B2B41F4D70116966D9147
:101D50007D918D919C91199709C0F701448955890E
:101D600066897789808191810E944B056230710577
:101D70008105910528F482E0D7011F968C9399C0C4
:101D80006F3FBFEF7B078B079B0721F481E0F701D3
:101D900087878FC0D70154966D937D938D939C93C5
:101DA000579749805A80F701448955896689778910
:101DB000C2010E940E016115710581059105D9F2DC
:101DC0009B01AC01200F311F411D511D6501CD2C20
:101DD000DD24C694C114D104D1F0D20119968D919D
:101DE0009C911A97B601600F711F8617970718F418
:101DF0006C01C01AD10A8601B401F20181810E94EE
:101E0000A512892B19F6DC2CCC24DD0C35C0D701AA
:101E100058962D933D934D935C935B97F701808982
:101E2000918991709101281B390B65012A153B0599
:101E300008F46901D70158964D915D916D917C919F
:101E40005B9789819A810E941002892B09F09ECFAD
:101E5000D7015096ED91FC915197F170F3968981DD
:101E60009A81E80FF91FD401C4018C0D9D1D2191A9
:101E70002D93A817B907D9F78C0C9D1CF701808901
:101E80009189A289B3898C0D9D1DA11DB11D808BE7
:101E9000918BA28BB38BD3018D919C9111978C0D5B
:101EA0009D1D8D939C93AC18BD0824CF80E001C08C
:101EB00087E090E00F900F90DF91CF911F910F91ED
:101EC000FF90EF90DF90CF90BF90AF909F908F905A
:101ED0007F906F905F904F903F902F900895CF929A
:101EE000DF92EF92FF920F931F93CF93DF9300D077
:101EF000CDB7DEB76C01BE016F5F7F4F0E945F01FF
:101F0000009709F0CBC0D6011E962C911E9726FF94
:101F1000C5C05C964D915D916D917C915F97898173
:101F20009A810E941002009709F0B8C0D6019096DD
:101F3000ED91FC91919783858062838716964D91F0
:101F40005D916D917C9119972D913C91428F538FAA
:101F5000D9012C91233029F4CB01AA27BB27848BEC
:101F6000958BD6011A963C911A971B962C911B972C
:101F70001C969C911C971D968C91348F258F968F63
:101F8000878F168A178A81EA808F88E4818F128A68
:101F9000138AE980FA8081E0F7018383C7010E94F8
:101FA000A901009709F076C0D7018C91833009F020
:101FB00062C014968C91813009F05DC0B7016D5CF0
:101FC0007F4FFB01C7018D5C9D4F1192E817F90708
:101FD000E1F785E5F701EF5CFD4F80838AEA3196F2
:101FE000808382E5F70183AB84AB81E685AB91E426
:101FF00096AB22E7E95EFD4F208331962083319630
:10200000908331968083D7011F963C911F975096FD
:102010002C91509751969C91519752968C91319654
:102020003083319620833196908331968083F701F7
:102030003385248595858685E15EFD4F3083319615
:1020400020833196908331968083F701878D90A10C
:10205000A1A1B2A19C01AD012F5F3F4F4F4F5F4F38
:1020600027A730AB41AB52AB01E010E081810E9469
:10207000F212F701148240E050E060E0D7011196BF
:102080008C910E94651331E020E0892B09F430E047
:10209000832F922FF60126852F7B26870F900F9096
:1020A000DF91CF911F910F91FF90EF90DF90CF9034
:1020B00008950F931F93CF93DF9300D0CDB7DEB772
:1020C0008C010E946F0F009759F4BE016F5F7F4F24
:1020D000C8010E945F01009719F4F8011182108273
:1020E0000F900F90DF91CF911F910F9108958F92D4
:1020F0009F92AF92BF92CF92DF92EF92FF920F9397
:102100001F93CF93DF9300D000D0CDB7DEB77C0113
:102110004A018C01C12CD12C5B0181E0A81AB108C5
:10212000CA14DB04D4F49E012F5F3F4F41E050E01E
:10213000BE016D5F7F4FC4010E94350E89819A8177
:10214000019759F48B810F5F1F4FF80131978083FE
:102150009FEFC91AD90A8A3019F7F8011082CD28E1
:1021600011F0C70102C080E090E00F900F900F9037
:102170000F90DF91CF911F910F91FF90EF90DF9023
:10218000CF90BF90AF909F908F9008951CBC84B16A
:102190008C7484B985B1887F85B985B1836085B930
:1021A0002A9A84E180933301809133018111FCCF1D
:1021B00008958EBD0DB407FEFDCF8EB508952C9AFF
:1021C0008FEF0C94D9100F931F93CF93DF93EC01F3
:1021D0008B0184E1809333018FEF0E94D9108F3FF0
:1021E00029F4809133018111F7CF1EC08E3FE1F4B5
:1021F0008FEF8EBD0DB407FEFDCF9EB598838EBDCB
:102200000DB407FEFDCF22969EB5FE013197908357
:102210000250110971F78FEF0E94D9108FEF0E94C1
:10222000D91081E090E002C080E090E0DF91CF9192
:102230001F910F91089582E3809332018FEF0E94E6
:10224000D910282F8F3F21F0809132018111F6CFD4
:1022500081E090E02F3F11F080E090E00895CF936F
:10226000DF9300D0CDB7DEB72C988FEF0E94D91046
:102270000E941B11009739F489839A830E94DF1012
:1022800089819A8102C081E090E00F900F90DF91E8
:10229000CF910895FF920F931F93CF93DF93C82F91
:1022A000D42F152F062FF72E87FF09C040E050E0EE
:1022B000BA0187E30E944A118230A0F5CF77CC3073
:1022C00099F48C2F80640E94D9108F2D0E94D91010
:1022D000802F0E94D910812F0E94D9108D2F0E942B
:1022E000D910CC2369F008C00E94DF100E942F1182
:1022F000892B39F78FEF16C0C83021F081E003C079
:1023000085E901C087E80E94D910CC3019F48FEF1D
:102310000E94D910CAE08FEF0E94D91087FF02C037
:10232000C150C9F7DF91CF911F910F91FF90089590
:102330001F93CF93DF93EC01162F0E941B11009780
:1023400059F1812F0E94D9101D3F21F1CE019E5FCE
:1023500028812EBD0DB407FEFDCF2296FE013197D8
:1023600020812EBD0DB407FEFDCFC817D90781F718
:102370008FEF0E94D9108FEF0E94D9108FEF0E942B
:10238000D9108F7131E020E0853009F030E0832FE3
:10239000922F02C081E090E0DF91CF911F910895CC
:1023A000DF92EF92FF920F931F93CF93DF9300D0B2
:1023B00000D0CDB7DEB78111B4C00E94C6108091A5
:1023C000060181FDABC02A98229A82E080933301F6
:1023D000809133018111FCCF85B1806B85B984B1C7
:1023E000806B84B982E58CBD91E09DBD8CBD1AE007
:1023F0008FEF0E94D9101150D9F740E050E0BA0198
:1024000080E00E944A11813009F075C084E6809313
:1024100033014AEA51E060E070E088E00E944A112E
:10242000813009F040C08E010F5F1F4F780184E0BA
:10243000D82ED00E8FEF0E94D910F70181937F0123
:10244000DE12F8CF8B81813009F055C08C818A3A39
:1024500009F051C080913301811106C08091330190
:10246000882309F448C00AC040E050E060E070E40E
:1024700089EA0E944A118111EDCFF0CF40E050E08F
:10248000BA018AE30E944A11811135C08FEF0E9480
:10249000D910F80181938F01DE12F8CF898186FD72
:1024A0002CC014E02BC040E050E0BA0189EA0E9441
:1024B0004A11823018F011E001E002C012E009EA8E
:1024C00080913301811105C080913301882399F0F7
:1024D00009C040E050E0BA01802F0E944A118111EA
:1024E000EFCFF2CF40E052E060E070E080E10E9488
:1024F0004A11882319F010E001C01CE0109331014B
:102500000E94DF10112341F0809106018E7F80939D
:10251000060180E58CBD02C00E94C61080910601B4
:1025200001C081E00F900F900F900F90DF91CF913D
:102530001F910F91FF90EF90DF900895811103C0DC
:1025400080910601089581E00895EF92FF920F9324
:102550001F93CF937B01BA01A901811139C00115E5
:102560001105B1F18091060180FD34C080913101E7
:1025700083FD07C089E0440F551F661F771F8A95AA
:10258000D1F70230110510F4C1E101C0C2E18C2F76
:102590000E944A11811114C060E072E0C7010E94DC
:1025A000E310892B29F08EEFF81A01501109A1F7D9
:1025B000C23131F440E050E0BA018CE00E944A118F
:1025C0000E94DF1081E090E0012B31F480E004C034
:1025D00084E001C083E090E0CF911F910F91FF90C4
:1025E000EF900895CF92DF92EF92FF920F931F9397
:1025F000CF93DF93EB0169017A01811157C0011577
:10260000110509F453C08091060180FD51C08091ED
:10261000060182FD4FC08091310183FD07C099E022
:10262000CC0CDD1CEE1CFF1C9A95D1F70130110576
:1026300099F4B701A60188E10E944A1181112EC0C8
:102640006EEFCE010E94981131E020E0892B09F055
:1026500030E0032F122F22C0867031F0A80160E015
:1026600070E087E90E944A11B701A60189E10E9442
:102670004A11811113C06CEFCE010E949811892B71
:1026800021F0DE5F01501109B1F76DEF80E090E0BD
:102690000E949811892B11F401E010E00E94DF10D4
:1026A00081E090E0012B41F480E006C084E003C0AB
:1026B00083E001C082E090E0DF91CF911F910F9104
:1026C000FF90EF90DF90CF900895EF92FF920F93DD
:1026D0001F93CF93DF93CDB7DEB760970FB6F89413
:1026E000DEBF0FBECDBF81115AC18091060180FDB2
:1026F00058C17A01623309F40BC188F46130F1F0FA
:10270000D0F0633009F47CC0673009F042C10E9408
:10271000C61080910601816080930601F7C0643382
:1027200009F40DC108F4F9C0653309F40DC166332D
:1027300009F41FC12EC10E942F11FCC040E050E0DF
:10274000BA0189E00E944A11882311F001E022C1F8
:1027500060E170E0CE0101960E94E310892BB1F395
:1027600099819295969596959370888549852A8545
:102770009130E1F48F7390E0A0E0B0E0DC019927A4
:1027800088270196A11DB11D50E0542F4427BA019E
:10279000620F711D860F971FA11DB11DFAE0880FF2
:1027A000991FAA1FBB1FFA95D1F7ABC0429546955A
:1027B00046954370F4E08F9FC0011124840F911D52
:1027C00001964F81437050E0542F4427550F550F09
:1027D000840F951FA0E0B0E03E81432F4F703B85F2
:1027E000331F3327331F340F2370220F230F27503B
:1027F00004C0880F991FAA1FBB1F2A95D2F781C05A
:102800001091310140E050E0BA0112FF2BC08DE879
:102810000E944A1181119ACF8FEF0E94D91060E176
:1028200070E0CE0101960E94E310892B09F48ECF4F
:1028300010E38FEF0E94D9101150D9F72B85229504
:102840002F7080E190E0A0E0B0E004C0880F991FF5
:10285000AA1FBB1F2A95D2F7F70180839183A28319
:10286000B38395C089E00E944A1181116FCF60E166
:1028700070E0CE0101960E94E310892B09F466CF27
:102880008B852C8511FF1FC0221F2227221F022F9C
:1028900010E00F5F1F4F8F73080F111D080F111DE0
:1028A0008E858295869586958370815002C0000F33
:1028B000111F8A95E2F720E030E0F70100831183D1
:1028C0002283338323C0922F9370229526952770FD
:1028D00030E0F8E09F9F200D311D11242F5F3F4F06
:1028E0008C7790E095958795959587950196289F8B
:1028F000A001299F500D389F500D1124CA01A0E05E
:10290000B0E0F70180839183A283B38300E042C0EB
:1029100080913101FA018083F9CF40E050E0BA01A3
:1029200089E00E944A11811111CF60E170E0C70176
:102930000E94E31001E010E0892B69F128C040E01B
:1029400050E0BA018AE0EDCF40E050E0BA018AE3FE
:102950000E944A118111FACE87010C5F1F4F8FEF41
:102960000E94D910F70181937F01E017F107B9F7B1
:10297000CDCF40E050E0BA018DE80E944A118111AC
:10298000E5CE8FEF0E94D91060E470E0D0CF00E078
:1029900002C004E010E00E94DF10C80104C084E01F
:1029A00001C083E090E060960FB6F894DEBF0FBEE2
:1029B000CDBFDF91CF911F910F91FF90EF900895C0
:1029C0000E940D15A59F900DB49F900DA49F800DA2
:1029D000911D11240895A1E21A2EAA1BBB1BFD0113
:1029E0000DC0AA1FBB1FEE1FFF1FA217B307E407EE
:1029F000F50720F0A21BB30BE40BF50B661F771F46
:102A0000881F991F1A9469F7609570958095909525
:102A10009B01AC01BD01CF010895A29FB001B39FFE
:102A2000C001A39F700D811D1124911DB29F700DD7
:102A3000811D1124911D0895CF93DF93823091055C
:102A400010F482E090E0E0918905F0918A0520E0A1
:102A500030E0C0E0D0E0309711F14081518148175B
:102A60005907C0F04817590761F482819381209774
:102A700019F09B838A832BC090938A0580938905E4
:102A800026C02115310519F04217530718F49A0191
:102A9000BE01DF01EF010280F381E02DDCCF2115C3
:102AA000310509F1281B390B2430310590F41296B9
:102AB0008D919C9113976115710521F0FB01938312
:102AC000828304C090938A0580938905FD01329624
:102AD00044C0FD01E20FF31F81939193225031090D
:102AE0002D933C933AC02091870530918805232B84
:102AF00041F4209102013091030130938805209325
:102B0000870520910001309101012115310541F423
:102B10002DB73EB74091040150910501241B350BA0
:102B2000E0918705F0918805E217F307A0F42E1BCA
:102B30003F0B2817390778F0AC014E5F5F4F241721
:102B4000350748F04E0F5F1F509388054093870567
:102B50008193919302C0E0E0F0E0CF01DF91CF914B
:102B600008950F931F93CF93DF93009709F48CC0C0
:102B7000FC013297138212820091890510918A0517
:102B80000115110581F420813181820F931F20915D
:102B90008705309188052817390779F5F09388055E
:102BA000E093870571C0D80140E050E0AE17BF0741
:102BB00050F412962D913C911397AD0121153105DA
:102BC00009F1D901F3CF9D01DA01338322836081BA
:102BD0007181860F971F8217930769F4EC01288192
:102BE0003981260F371F2E5F3F4F318320838A8123
:102BF0009B8193838283452B29F4F0938A05E0938C
:102C0000890542C01396FC93EE931297ED0149910A
:102C100059919E01240F351FE217F30771F480814B
:102C20009181840F951F029611969C938E938281B9
:102C3000938113969C938E931297E0E0F0E0D80175
:102C400012968D919C911397009719F0F8018C01C1
:102C5000F6CF8D919C9198012E5F3F4F820F931F6D
:102C600020918705309188052817390769F4309736
:102C700029F410928A051092890502C013821282EB
:102C80001093880500938705DF91CF911F910F91D5
:062C90000895F894FFCF47
:102C960000008B05200001746573742E66696C0054
:102CA600222A2B2C3A3B3C3D3E3F5B5D7C7F00005D
:00000001FF
